:04F00000000000000C
:10F00400314000123C4000020D433E400C00B0125F
:10F0140034F10C43B01222F0B01232F1FF3F32D27D
:10F02400B240805A200182431C00B01266F0B24004
:10F0340080001A00B012C8F04C931024B240FF00B4
:10F04400280082431A001D4226001C4228000D9C01
:10F054000324B24005001A004C4330418243280087
:10F06400F03FC2430A02F24003000902C24308020D
:10F074003C400002DC430000EC430100FC40030080
:10F084000200EC4203003C400402CC430000CC43A9
:10F094000100CC430200CC43030030410A123EF08D
:10F0A400FF004F430F9E03385C433A4130410A4D01
:10F0B4000A5F0B4C0B5FEB9A000002201F53F23FD8
:10F0C4004C43F33F0A12C2430A02D2430402E2430E
:10F0D4000502F24003000602E2420702D2430002A4
:10F0E400E2430102F24003000202E24203025A42F6
:10F0F40009028A114C434D435D92090211346E4258
:10F104003D4000023C400402B012A0F04D4C3CF0E3
:10F11400FF005D930720F24003000902D2430A0274
:10F124003A4130417A53C24A09024C43F93FFF3F06
:10F134000E5C0F4C0F9E012030411F53CF4DFFFF3B
:02F14400F93F91
:02FFF80020F0F7
:02FFFE0004F00D
:040000030000F00405
:00000001FF
