:04F00000000000000C
:10F00400314000123C4000020D433E400200B01269
:10F014007CF00C43B0121EF0FF3F32D2B240805A53
:10F0240020018243000282431C00B24080001A0087
:10F034001C4200020C930E241C93152482431A00D4
:10F044001D4226001C4228000D9CEF27B2400500FB
:10F054001A00EB3F824328001C4226001C93EE2337
:10F0640092430002EB3F924328001C4226000C937B
:10F07400E52382430002E23F0E5C0F4C0F9E012009
:0AF0840030411F53CF4DFFFFF93F4D
:02FFF8001CF0FB
:02FFFE0004F00D
:040000030000F00405
:00000001FF
