:04F00000000000000C
:10F00400314000120C43B01210F0FF3F0A120912F3
:10F01400081231802000B14040800000B140060C4D
:10F0240002008143040081430600B1407E2B0800A6
:10F03400B14016150A00B140AE280C00B140A6D26A
:10F044000E00B14043321000B140A8F61200B140A6
:10F054005A881400B1408D301600B1403131180087
:10F06400B140A2981A00B14037E01C00B140340707
:10F074001E0009413950180032D2B240805A200192
:10F0840082431C00B24080001A000E413E50100022
:10F094000A490B410F413F523C4A0D4C3DEB384F5E
:10F0A40008CD0D483CEE0DEC824D28000E99F4235A
:10F0B40082431A001D4226001C4228000D9CDC27B6
:08F0C400B24005001A00D83F1C
:02FFF8000EF009
:02FFFE0004F00D
:040000030000F00405
:00000001FF
