:04F00000000000000C
:10F00400314000123C4000020D433E400C00B0125F
:10F0140056F20C43B01222F0B01254F2FF3F32D237
:10F02400B240805A200182431C00B01266F0B24004
:10F0340080001A00B012B0F04C931024B240FF00CC
:10F04400280082431A001D4226001C4228000D9C01
:10F054000324B24005001A004C4330418243280087
:10F06400F03FC2430A02F24003000902C24308020D
:10F0740030410A1209120B4C3EF0FF004C434F433F
:10F084000F9E09383C537D400F00B012C4F14D432C
:10F094004D8C4C4D703C094D095F0A4B0A5FEA994F
:10F0A400000002247C40FF001F53EA3F0A12C243BF
:10F0B4000A02D2430402E2430502F24003000602BC
:10F0C400E2420702D2430002E2430102F24003009B
:10F0D4000202E24203025C4209028C114D435D923A
:10F0E400090202384C43203C7C53C24C09023A408A
:10F0F40076F06E423D4000023C4004028A127C934A
:10F10400F123B240480028006E423D4004023C40D6
:10F1140000028A124D4C3CF0FF007D930720F24020
:10F1240003000902F2430A023A413041B0126AF183
:10F13400D93F4C43D29308020A245C420A027CE37E
:10F144003CF0FF003C537D400F00B012C4F130414D
:10F154004C43D293080206245C436D435D9209023A
:10F1640001384C433041D2430802304134413541E7
:10F1740036413741384139413A41304112C30C10CC
:10F1840012C30C1012C30C1012C30C1012C30C10B7
:10F1940012C30C1012C30C1012C30C1012C30C10A7
:10F1A40012C30C1012C30C1012C30C1012C30C1097
:10F1B40012C30C1012C30C1030413D5312C30C1077
:10F1C4000D93FB23304112C30D100C1012C30D100C
:10F1D4000C1012C30D100C1012C30D100C1012C31E
:10F1E4000D100C1012C30D100C1012C30D100C10C6
:10F1F40012C30D100C1012C30D100C1012C30D10FD
:10F204000C1012C30D100C1012C30D100C1012C3ED
:10F214000D100C1012C30D100C1012C30D100C1095
:10F2240030413E5312C30D100C100E93FA2330419B
:10F234000F4B0B4C0E4A0D490C480B9301203041E7
:10F2440012C30F100E100D100C103B53F923304154
:10F25400FF3F0E5C0F4C0F9E012030411F53CF4DDA
:04F26400FFFFF93F70
:02FFF80020F0F7
:02FFFE0004F00D
:040000030000F00405
:00000001FF
